:1000000003C100002EC100002CC100002AC1000065
:1000100028C1000026C1000024C1000022C1000048
:1000200020C100001EC100001CC100001AC1000058
:1000300018C1000016C1000014C1000012C1000068
:1000400010C100000EC100000CC100000AC1000078
:1000500008C1000006C1000004C100000C94DE0AC3
:1000600000C10000F7C4000039C60000FAC000005B
:10007000F8C00000F6C00000F4C00000F2C00000AC
:10008000F0C00000EEC00000ECC00000EAC00000BC
:1000900021C5000062C60000E4C0000044C20000A8
:1000A000E0C00000DEC00000DCC00000DAC00000DC
:1000B000D8C00000D6C00000D4C00000D2C00000EC
:1000C000D0C00000CEC00000CCC0000043C500007E
:1000D00083C60000C6C000007DC50000BCC600008D
:1000E000C0C0000000002100240027002A002D00CD
:1000F0003000330001010000040107010A01000083
:100100002200250028002B002E00310034000201BF
:100110000000050108010B0100002000230026005B
:1001200029002C002F00320000010000030106010D
:10013000090105050505070508080808020202026D
:100140000A0A080804040404010101010101010173
:100150000303030303030303040707070C0C0C0C3E
:100160000C0C0C0C02020202060606060606060627
:100170000B0B0B0B0B0B0B0B0102102020080810B4
:100180002040102040800201020108040201010207
:1001900004081020408080402010080402018004E0
:1001A000020180402010080402010804020101023B
:1001B0000408102040800102040810204080000044
:1001C000090A02080B0C0D070603040100000000D9
:1001D000000000000000000000000000000000001F
:1001E0000000000000000000000011100F000000DF
:1001F00000000000000000000000000000000000FF
:1002000000000000D9019A0811241FBECFEFD1E2EF
:10021000DEBFCDBF00E00CBF12E0A0E0B2E0E2EA3A
:10022000F7E100E00BBF02C007900D92A832B107C2
:10023000D9F71BBE15E0A8E2B2E001C01D92AC39AF
:10024000B107E1F712E0C8E0D2E004C02297FE0156
:100250000E94CB0BC430D107C9F70E94D0090C947F
:10026000CF0BCECE05C081E792E046D08093060248
:1002700081E792E038D0892BB1F708950F931F934F
:100280000BE015E0C801609106024AE050E00E94D0
:10029000B10AC80160E072E00E94CD0A1F910F917F
:1002A00008950F931F9386E161E0EED287E161E04C
:1002B000EBD286E160E09BD387E160E098D38BE0EE
:1002C00095E040E855E260E070E004D601E712E016
:1002D000C80162E070E0FCD0C80162E371E064D064
:1002E0001F910F9108952091490230E080914802BA
:1002F000281B3109C90108954091480280914902A3
:10030000481718F02FEF3FEF0AC0E42FF0E0E85D48
:10031000FD4F8081282F30E04F5F40934802C90194
:100320000895E091480280914902E81718F0EFEF34
:10033000FFEF06C0F0E0E85DFD4F8081E82FF0E0C0
:10034000CF0108950895AC0120916F0230917002A1
:1003500021153105E1F090914802809149029817EA
:10036000B0F090E008C0FA01EA0FFB1F8081A85DA1
:10037000BD4F8C939F5FA92FB0E0A617B7079CF3E2
:100380001092480260934902CB01F9011995089532
:10039000E0916D02F0916E02309729F010926A029E
:1003A00010926B02199508957093700260936F021A
:1003B0000895109274021092730288EE93E0A0E008
:1003C000B0E08093750290937602A0937702B09389
:1003D00078028BE092E0909372028093710208950C
:1003E000CF92DF92EF92FF920F931F93CF93DF9301
:1003F0007C016B018A0180916C028823A1F0C0E02E
:10040000D0E00DC0D701ED91FC91D601AC0FBD1F1E
:100410000190F081E02DC7016C9119952196C017CC
:10042000D10780F303C0CB01642F58D0C801DF91FE
:10043000CF911F910F91FF90EF90DF90CF90089593
:10044000DF93CF930F92CDB7DEB7FC016983809124
:100450006C028823C9F080916B02803238F081E011
:1004600090E09383828320E030E014C080916A02A0
:10047000E82FF0E0E65BFD4F998190838F5F8093DA
:100480006A0280936B0204C0CE01019661E026D01F
:1004900021E030E0C9010F90CF91DF9108951092D3
:1004A00048021092490210926A0210926B02D0C167
:1004B0000F931F938C01862F0DD088EC91E02ED0E6
:1004C00083EA91E026D0C801EADF1F910F910895D9
:1004D000EFCF0895880F8093BA000895482F6132B6
:1004E00010F081E0089580917D02843011F082E067
:1004F00008956093C802A7EAB2E0842F9C01F90135
:1005000002C081918D938E2F841B8617D0F380E0DB
:1005100008959093840280938302089590938202B9
:100520008093810208951F920F920FB60F920BB61F
:100530000F9211242F933F934F935F936F937F9369
:100540008F939F93AF93BF93EF93FF938091B900E5
:1005500090E0887F90708036910509F4F2C0813672
:100560009105CCF58832910509F47BC0893291055B
:10057000B4F48031910509F46FC0813191053CF4E8
:10058000009709F447C1089709F04FC165C0883149
:10059000910509F466C0809709F047C182C0803494
:1005A000910509F4A4C08134910544F48033910588
:1005B00009F482C0C89709F038C189C08035910517
:1005C00009F489C08835910509F496C088349105ED
:1005D00009F02BC1AEC08839910509F413C18939DE
:1005E0009105ECF48837910509F4ABC08937910582
:1005F0004CF48836910509F4A4C08037910509F0C0
:1006000014C19FC08838910509F4FCC08039910558
:1006100009F49DC08038910509F007C198C0803B5E
:10062000910509F4C6C0813B91054CF4803A9105CF
:1006300009F49FC0883A910509F0F7C0BAC0803C20
:10064000910509F4E3C0883C910509F4DFC0883BBB
:10065000910509F0EAC0C2C080917E028093BB0080
:10066000CFC09091A5028091A602981768F490914E
:10067000A502E92FF0E0EB57FD4F80818093BB008E
:100680009F5F9093A502BCC080917F02882309F4EC
:100690004BC085ED8093BC008091BC0084FDFCCFF5
:1006A000C2C080E28093EA0285ED8093BC00809115
:1006B000BC0084FDFCCFB7C080E38093EA0285EDE7
:1006C0008093BC008091BC0084FDFCCFACC088E36B
:1006D0008093EA029BC08091A5029091BB00E82F15
:1006E000F0E0EB57FD4F90838F5F8093A5029091D0
:1006F000A5028091A60282C08091A5029091BB00C4
:10070000E82FF0E0EB57FD4F90838F5F8093A502B9
:1007100080917F02882341F085ED8093BC00809119
:10072000BC0084FDFCCF7FC081E08093800284EA1E
:100730006EC085ED8093BC008091BC0084FDFCCF31
:1007400072C083E080937D021092E90259C08091CB
:10075000E902803208F056C08091E9029091BB0016
:10076000E82FF0E0E753FD4F90838F5F8093E9021D
:1007700047C08091E902803230F4E091E902F0E074
:10078000E753FD4F108285ED8093BC008091BC0043
:1007900084FDFCCF10927D026091E902E09183021A
:1007A000F091840289EC92E070E019951092E902D0
:1007B0002DC084E080937D021092C7021092C8027F
:1007C000E0918102F091820219958091C8028823FC
:1007D00029F481E08093C8021092A7029091C70289
:1007E000E92FF0E0E955FD4F80818093BB009F5FCA
:1007F0009093C7029091C7028091C802981710F495
:1008000085EC01C085E88093BC000FC085EC809327
:10081000BC0009C01092EA0285ED8093BC00809173
:10082000BC0084FDFCCF10927D02FF91EF91BF913F
:10083000AF919F918F917F916F915F914F913F9178
:100840002F910F900BBE0F900FBE0F901F90189519
:1008500010927D0281E080937F021092800284E1F9
:1008600061E0C5D085E161E0C2D0E9EBF0E08081D4
:100870008E7F808380818D7F808388E48093B80021
:1008800085E48093BC000895CF93DF93482F50E018
:10089000CA0188589E4FFC0134914E5C5E4FFA01AC
:1008A0008491882369F190E0880F991FFC01EC5135
:1008B000FF4FA591B491FC01E250FF4FC591D49137
:1008C000662351F42FB7F8948C91932F9095892338
:1008D0008C93888189230BC0623061F42FB7F89420
:1008E0008C91932F909589238C938881832B888377
:1008F0002FBF06C09FB7F8948C91832B8C939FBF1A
:10090000DF91CF910895893009F449C08A30A0F46D
:10091000843051F1853040F4823079F1833000F534
:10092000813009F063C026C0873079F1883098F5AE
:10093000863009F05BC025C08D3009F442C08E308E
:1009400028F48B30B1F18C30C0F52DC0803109F422
:1009500042C0813109F445C08F3009F047C037C02B
:10096000809180008F7703C0809180008F7D80937D
:100970008000089584B58F7702C084B58F7D84BDD3
:1009800008958091B0008F7703C08091B0008F7D73
:100990008093B0000895809190008F7707C0809178
:1009A00090008F7D03C080919000877F809390009E
:1009B00008958091A0008F7707C08091A0008F7D5F
:1009C00003C08091A000877F8093A000089580914C
:1009D00020018F7703C0809120018F7D80932001BB
:1009E000089580912001877F809320010895FF92D0
:1009F0000F931F93F62E482F50E0CA0182549E4F4A
:100A0000FC012491CA0188589E4FFC0114914E5C50
:100A10005E4FFA0104910023C1F0222311F0822FCE
:100A200072DFE02FF0E0EE0FFF1FE250FF4FA591C5
:100A3000B4919FB7F894FF2021F48C9110958123F5
:100A400002C08C91812B8C939FBF1F910F91FF90BF
:100A5000089508951F920F920FB60F920BB60F9242
:100A600011242F933F934F938F939F93EF93FF9373
:100A70008091C00082FD1DC04091C60020912B03D3
:100A800030912C032F5F3F4F2F73307080912D03D7
:100A900090912E032817390771F0E0912B03F09104
:100AA0002C03E551FD4F408330932C0320932B03FF
:100AB00002C08091C600FF91EF919F918F914F915D
:100AC0003F912F910F900BBE0F900FBE0F901F9074
:100AD000189508951F920F920FB60F920BB60F92B2
:100AE00011242F933F934F938F939F93EF93FF93F3
:100AF0008091C80082FD1DC04091CE002091B303BB
:100B00003091B4032F5F3F4F2F7330708091B50346
:100B10009091B6032817390771F0E091B303F09173
:100B2000B403ED58FC4F40833093B4032093B303D8
:100B300002C08091CE00FF91EF919F918F914F91D4
:100B40003F912F910F900BBE0F900FBE0F901F90F3
:100B5000189508951F920F920FB60F920BB60F9231
:100B600011242F933F934F938F939F93EF93FF9372
:100B70008091D00082FD1DC04091D60020913B04A1
:100B800030913C042F5F3F4F2F73307080913D04B4
:100B900090913E042817390771F0E0913B04F091E1
:100BA0003C04E550FC4F408330933C0420933B04CD
:100BB00002C08091D600FF91EF919F918F914F914C
:100BC0003F912F910F900BBE0F900FBE0F901F9073
:100BD000189508951F920F920FB60F920BB60F92B1
:100BE00011242F933F934F938F939F93EF93FF93F2
:100BF0008091300182FD1DC0409136012091C304D7
:100C00003091C4042F5F3F4F2F7330708091C50423
:100C10009091C6042817390771F0E091C304F09150
:100C2000C404ED57FB4F40833093C4042093C304A6
:100C300002C080913601FF91EF919F918F914F916A
:100C40003F912F910F900BBE0F900FBE0F901F90F2
:100C50001895E0911705F0911805E05CFF4F819120
:100C6000919120813181821B930B8F739070892B1E
:100C700009F0EFDEE0913905F0913A05E05CFF4FB5
:100C80008191919120813181821B930B8F739070A0
:100C9000892B09F01EDFE0915B05F0915C05E05CBB
:100CA000FF4F8191919120813181821B930B8F7332
:100CB0009070892B09F04DDFE0917D05F0917E0564
:100CC000E05CFF4F8191919120813181821B930BD8
:100CD0008F739070892B09F07CCF08951F920F922B
:100CE0000FB60F920BB60F9211242F933F938F9351
:100CF0009F93EF93FF9320916F0330917003809146
:100D00007103909172032817390731F48091C10063
:100D10008F7D8093C10014C0E0917103F091720344
:100D2000E15DFC4F208180917103909172030196E7
:100D30008F73907090937203809371032093C60019
:100D4000FF91EF919F918F913F912F910F900BBE4B
:100D50000F900FBE0F901F9018951F920F920FB615
:100D60000F920BB60F9211242F933F938F939F9363
:100D7000EF93FF932091F7033091F8038091F903EB
:100D80009091FA032817390731F48091C9008F7DBB
:100D90008093C90014C0E091F903F091FA03E9547B
:100DA000FC4F20818091F9039091FA0301968F7393
:100DB00090709093FA038093F9032093CE00FF91F3
:100DC000EF919F918F913F912F910F900BBE0F90BC
:100DD0000FBE0F901F9018951F920F920FB60F9293
:100DE0000BB60F9211242F933F938F939F93EF9302
:100DF000FF9320917F043091800480918104909131
:100E000082042817390731F48091D1008F7D8093B7
:100E1000D10014C0E0918104F0918204E15CFB4FA9
:100E20002081809181049091820401968F7390704B
:100E300090938204809381042093D600FF91EF91D8
:100E40009F918F913F912F910F900BBE0F900FBEEE
:100E50000F901F9018951F920F920FB60F920BB61E
:100E60000F9211242F933F938F939F93EF93FF93B0
:100E700020910705309108058091090590910A0598
:100E80002817390731F4809131018F7D809331012A
:100E900014C0E0910905F0910A05E953FB4F208148
:100EA0008091090590910A0501968F739070909337
:100EB0000A058093090520933601FF91EF919F91D8
:100EC0008F913F912F910F900BBE0F900FBE0F90FF
:100ED0001F901895AF92BF92DF92EF92FF920F93FF
:100EE0001F93CF93DF93EC017A018B01DD24403017
:100EF00081EE580780E0680780E0780711F0DD2474
:100F0000D39491E0A92EB12CEC89FD89DD2069F004
:100F1000C50108A002C0880F991F0A94E2F78083D8
:100F200060E079E08DE390E005C0108260E874E84D
:100F30008EE190E0A80197010AD421503040404052
:100F40005040569547953795279580E120303807D2
:100F500020F0DD2011F0DD24D7CFE889F989308336
:100F6000EA89FB89208319A2EE89FF89408121E06B
:100F700030E0C9010C8C02C0880F991F0A94E2F777
:100F8000482B4083EE89FF894081C9010D8C02C046
:100F9000880F991F0A94E2F7482B4083EE89FF8956
:100FA0004081C9010E8C02C0880F991F0A94E2F794
:100FB000482B4083EE89FF8980810F8C02C0220F6D
:100FC000331F0A94E2F7209528232083DF91CF91E5
:100FD0001F910F91FF90EF90DF90BF90AF90089519
:100FE000DC011C96ED91FC911D97E05CFF4F219177
:100FF000319180819181281B390B2F733070C90189
:101000000895DC011C96ED91FC911D97E05CFF4F6B
:1010100020813181E054F040DF01AE5BBF4F8D9104
:101020009C9111972817390719F42FEF3FEF07C04C
:101030008D919C91E80FF91F8081282F30E0C90124
:101040000895DC011C96ED91FC911D97E05CFF4F2B
:1010500020813181E054F040DF01AE5BBF4F8D91C4
:101060009C9111972817390719F42FEF3FEF10C003
:101070008D919C911197E80FF91F20818D919C9182
:10108000119701968F73907011969C938E9330E018
:10109000C9010895DC0191968C919197882339F0CC
:1010A0005496ED91FC915597808186FFF9CF9196EA
:1010B0001C920895CF93DF93EC01EE85FF85E05CF1
:1010C000FF4F20813181E054F0402F5F3F4F2F735D
:1010D0003070DF01AE5BBF4F8D919C911197281747
:1010E0003907D1F3E05CFF4F80819181E054F040FB
:1010F000E80FF91F6083EE85FF85E05CFF4F3183C9
:101100002083EE89FF89208181E090E00F8C02C06E
:10111000880F991F0A94E2F7282B208381E089A386
:10112000EC89FD8980818064808381E090E0DF919B
:10113000CF9108951F9310920E0510920D0528EE81
:1011400033E040E050E020930F05309310054093CA
:101150001105509312056BE172E070930C056093DA
:101160000B058BEE92E090931805809317058FE2A4
:1011700093E090931A058093190585EC90E0909385
:101180001C0580931B0584EC90E090931E058093D2
:101190001D0580EC90E09093200580931F0581EC65
:1011A00090E0909322058093210582EC90E090934B
:1011B00024058093230586EC90E090932605809388
:1011C000250514E010932705B3E0B0932805A7E0A8
:1011D000A0932905F5E0F0932A05E1E0E0932B05C3
:1011E0001092300510922F0520933105309332056F
:1011F000409333055093340570932E0560932D056D
:1012000083E793E090933A058093390587EB93E069
:1012100090933C0580933B058DEC90E090933E05C8
:1012200080933D058CEC90E09093400580933F05C2
:1012300088EC90E0909342058093410589EC90E022
:1012400090934405809343058AEC90E09093460583
:10125000809345058EEC90E0909348058093470578
:1012600010934905B0934A05A0934B05F0934C05A4
:10127000E0934D05109252051092510520935305AD
:10128000309354054093550550935605709350057F
:1012900060934F058BEF93E090935C0580935B0523
:1012A0008FE394E090935E0580935D0585ED90E07B
:1012B0009093600580935F0584ED90E090936205C4
:1012C0008093610580ED90E09093640580936305C1
:1012D00081ED90E0909366058093650582ED90E046
:1012E000909368058093670586ED90E090936A057A
:1012F0008093690510936B05B0936C05A0936D0501
:10130000F0936E05E0936F051092740510927305CB
:1013100020937505309376054093770550937805B3
:10132000709372056093710583E894E090937E0555
:1013300080937D0587EC94E09093800580937F05F2
:1013400085E391E0909382058093810584E391E0A9
:10135000909384058093830580E391E090938605C4
:101360008093850581E391E09093880580938705BC
:1013700082E391E090938A058093890586E391E06A
:1013800090938C0580938B0510938D05B0938E05FB
:10139000A0938F05F0939005E09391051F91089518
:1013A000CF93DF9353D10E945101C9E2D6E00E944E
:1013B0003E012097E1F34DDCFACFCF92DF92EF921E
:1013C000FF920F931F93CF93DF937C016B018A01F0
:1013D000C0E0D0E00FC0D6016D916D01D701ED9155
:1013E000FC910190F081E02DC7011995C80FD91F1C
:1013F000015010400115110571F7CE01DF91CF9119
:101400001F910F91FF90EF90DF90CF900895EF9292
:10141000FF920F931F938C01DC01ED91FC910190E1
:10142000F081E02D6DE019957C01D801ED91FC91E2
:101430000190F081E02DC8016AE019959C012E0D04
:101440003F1DC9011F910F91FF90EF900895CF9319
:10145000DF93EC016115710519F420E030E00FC055
:10146000DB010D900020E9F71197A61BB70BE8816F
:10147000F9810280F381E02DAD0119959C01C9012C
:10148000DF91CF9108954F925F927F928F929F92BA
:10149000AF92BF92CF92DF92EF92FF920F931F9382
:1014A000DF93CF93CDB7DEB7A1970FB6F894DEBF29
:1014B0000FBECDBF2C01742ECB01223008F42AE0E0
:1014C00019A231E2C32ED12CCC0EDD1E822E99241E
:1014D000AA24BB24672D752FA501940138D1790169
:1014E0008A01C801B701A501940112D1472D461BFD
:1014F0000894C108D1084A3014F4405D01C0495C29
:10150000F6014083E114F1040105110521F07E2C60
:101510005F2DC801DFCFC201B60199DFA1960FB6DA
:10152000F894DEBF0FBECDBFCF91DF911F910F9119
:10153000FF90EF90DF90CF90BF90AF909F908F90F3
:101540007F905F904F900895DC012115310541F4A3
:10155000ED91FC910190F081E02D642F1995089593
:1015600092CFCF92DF92EF92FF920F931F936C0175
:10157000E62E9A01FF2400E010E0B801A701E4DFA5
:101580008C01C60144DF080F191FC8011F910F917C
:10159000FF90EF90DF90CF900895EF92FF920F931E
:1015A0001F937C0154DF8C01C70131DF080F191F25
:1015B000C8011F910F91FF90EF9008951F920F9215
:1015C0000FB60F9211242F933F938F939F93AF9356
:1015D000BF938091970590919805A0919905B0913E
:1015E0009A0530919B050196A11DB11D232F2D5FFA
:1015F0002D3720F02D570196A11DB11D20939B057D
:101600008093970590939805A0939905B0939A05B8
:101610008091930590919405A0919505B0919605C0
:101620000196A11DB11D8093930590939405A093FD
:101630009505B0939605BF91AF919F918F913F9182
:101640002F910F900FBE0F901F901895789484B52E
:10165000826084BD84B5816084BD85B5826085BDAE
:1016600085B5816085BDEEE6F0E080818160808394
:10167000E1E8F0E010828081826080838081816077
:101680008083E0E8F0E0808181608083E1EBF0E03E
:10169000808184608083E0EBF0E0808181608083E2
:1016A000E1E9F0E0808182608083808181608083D5
:1016B000E0E9F0E0808181608083E1EAF0E0808110
:1016C00082608083808181608083E0EAF0E08081B5
:1016D00081608083E1E2F1E08081826080838081AB
:1016E00081608083E0E2F1E0808181608083EAE7CD
:1016F000F0E080818460808380818260808380814B
:10170000816080838081806880831092C100089509
:10171000629FD001739FF001829FE00DF11D649FD5
:10172000E00DF11D929FF00D839FF00D749FF00D61
:10173000659FF00D9927729FB00DE11DF91F639F02
:10174000B00DE11DF91FBD01CF0111240895A1E2E3
:101750001A2EAA1BBB1BFD010DC0AA1FBB1FEE1F2B
:10176000FF1FA217B307E407F50720F0A21BB30B76
:10177000E40BF50B661F771F881F991F1A9469F7F2
:1017800060957095809590959B01AC01BD01CF014E
:101790000895EE0FFF1F0590F491E02D1994F89431
:0217A000FFCF79
:1017A20048656C6C6F0001000000002002F00173BC
:1017B200017C019101A201000000005A08DD09F03C
:0817C20007210801084A080094
:00000001FF
