:1000000003C100002EC100002CC100002AC1000065
:1000100028C1000026C1000024C1000022C1000048
:1000200020C100001EC100001CC100001AC1000058
:1000300018C1000016C1000014C1000012C1000068
:1000400010C100000EC100000CC100000AC1000078
:1000500008C1000006C1000004C100000C94F108B2
:1000600000C100000C940D0C0C94510DFAC000005E
:10007000F8C00000F6C00000F4C00000F2C00000AC
:10008000F0C00000EEC00000ECC00000EAC00000BC
:100090000C944D0C0C94900DE4C00000E2C00000E4
:1000A000E0C00000DEC00000DCC00000DAC00000DC
:1000B000D8C00000D6C00000D4C00000D2C00000EC
:1000C000D0C00000CEC00000CCC000000C948D0C4D
:1000D0000C94CF0DC6C000000C94CD0C0C940E0EE9
:1000E000C0C0000000002100240027002A002D00CD
:1000F0003000330001010000040107010A01000083
:100100002200250028002B002E00310034000201BF
:100110000000050108010B0100002000230026005B
:1001200029002C002F00320000010000030106010D
:10013000090105050505070508080808020202026D
:100140000A0A080804040404010101010101010173
:100150000303030303030303040707070C0C0C0C3E
:100160000C0C0C0C02020202060606060606060627
:100170000B0B0B0B0B0B0B0B0102102020080810B4
:100180002040102040800201020108040201010207
:1001900004081020408080402010080402018004E0
:1001A000020180402010080402010804020101023B
:1001B0000408102040800102040810204080000044
:1001C000090A02080B0C0D070603040100000000D9
:1001D000000000000000000000000000000000001F
:1001E0000000000000000000000011100F000000DF
:1001F00000000000000000000000000000000000FF
:100200000000000032017D0F11241FBECFEFD1E2AC
:10021000DEBFCDBF00E00CBF13E0A0E0B2E0E6E03F
:10022000F4E200E00BBF02C007900D92AC30B107C2
:10023000D9F71BBE15E0ACE0B3E001C01D92AB3EA8
:10024000B107E1F712E0C8E0D2E004C02297FE0156
:100250000E94FD11C430D107C9F70E94B3100C945D
:100260000112CECECF92EF920F938CE093E062E337
:1002700043E326E107E158E1E52E39E1C32E79D7C2
:100280000F91EF90CF9008950F931F930CE013E020
:10029000C80160E040E09CD6C80160E072E00E94C6
:1002A000B7116091DD027091DE02C8014AE050E0B2
:1002B0000E94A51185E090E0909331038093300374
:1002C0001F910F9108950F931F930CE013E0C80145
:1002D00067E041E07DD66091E3027091E402C801DD
:1002E0004AE050E00E94A51183E090E09093310332
:1002F000809330031F910F9108950F931F930CE08B
:1003000013E0C80164E041E063D66091E1027091BE
:10031000E202C8014AE050E00E94A511C80169E06C
:1003200041E056D6C80160E172E00E94B71182E058
:1003300090E090933103809330031F910F910895C3
:100340000F931F930CE013E0C80160E040E040D63B
:10035000C80167E172E00E94B711C80164E041E0A2
:1003600037D66091DD027091DE02C8014AE050E0AC
:100370000E94A511C80169E041E02AD6C8016AE2DD
:1003800072E00E94B711C80160E043E021D6C801C5
:1003900062E372E00E94B71181E090E09093310334
:1003A000809330031F910F9108950F931F930CE0DA
:1003B00013E0C8013BD6C80160E040E009D6C8019F
:1003C00060E072E00E94B7116091DD027091DE0280
:1003D000C8014AE050E00E94A511C80160E041E078
:1003E000F7D5C80167E472E00E94B7116091290354
:1003F00070912A03C8014AE050E00E94A511C8018B
:1004000060E042E0E5D5C80165E572E00E94B71101
:1004100060912B0370912C03C8014AE050E00E94C8
:10042000A511C80160E043E0D3D585E090E090934A
:100430003103809330031F910F9108950F931F9301
:100440000CE013E0C801F2D5C80160E040E0C0D57F
:10045000C80163E672E00E94B711C80167E041E09D
:10046000B7D56091E3027091E402C8014AE050E020
:100470000E94A511C80169E041E0AAD5C80166E75C
:1004800072E00E94B711C80160E042E0A1D5C80146
:1004900068E772E00E94B711C80160E043E098D5B8
:1004A000C80162E372E00E94B71183E090E090938C
:1004B0003103809330031F910F9108950F931F9381
:1004C0000CE013E0C801B2D5C80160E040E080D57F
:1004D000C8016DE872E00E94B711C80164E041E014
:1004E00077D56091E1027091E202C8014AE050E0E4
:1004F0000E94A511C80169E041E06AD5C80160E128
:1005000072E00E94B711C80160E043E061D5C80104
:1005100062E372E00E94B71182E090E090933103B1
:10052000809330031F910F9108950F931F930CE058
:1005300013E0C8017BD5C80160E040E049D5C8019F
:1005400060E072E00E94B7116091DD027091DE02FE
:10055000C8014AE050E00E94A511C80160E041E0F6
:1005600037D5C80167E472E00E94B7116091290392
:1005700070912A03C8014AE050E00E94A511C80109
:1005800060E042E025D5C80165E572E00E94B71140
:1005900060912B0370912C03C8014AE050E00E9447
:1005A000A511C80160E043E013D5C8016FE972E00E
:1005B0000E94B71184E090E0909331038093300360
:1005C0001F910F9108950F931F930CE013E0C80142
:1005D0002DD5C80160E040E0FBD4C80167E172E0BE
:1005E0000E94B711C80164E041E0F2D46091DD02DD
:1005F0007091DE02C8014AE050E00E94A511C801D6
:1006000069E041E0E5D4C8016AE272E00E94B711F6
:10061000C80160E043E0DCD4C80162E372E00E94FC
:10062000B71181E090E090933103809330031F91E4
:100630000F91089586E30E94DD0B9093220380932F
:10064000210387E30E94DD0B90932403809323030F
:1006500088E30E94DD0B909326038093250389E3B2
:100660000E94DD0B90932803809327030895FF9247
:100670000F931F93CF93DF93DDDF80912103909140
:100680002203019759F48091230390912403019749
:1006900029F480912D03882309F495DF809130039C
:1006A00090913103019709F046C010922D0380917B
:1006B0002103909122030197B9F48091DD0290917A
:1006C000DE0223E0883E92075CF401969093DE02FE
:1006D0008093DD026CE271E080E090E044D604C0DB
:1006E0001092DE021092DD02809123039091240388
:1006F0000197C1F48091DD029091DE02181619066F
:100700005CF401979093DE028093DD026CE271E06D
:1007100080E090E028D606C087EE93E09093DE025A
:100720008093DD028091DD029091DE029093E002E1
:100730008093DF0205DE80912503909126030197C7
:10074000B1F48091300390913103019781F480914D
:100750002D03882361F482E090E09093310380932D
:100760003003ACDE60ED77E080E090E0FCD5809176
:10077000300390913103029741F580912D03882336
:1007800021F58091210390912203019749F48091F2
:10079000E1029091E20201969093E2028093E102DD
:1007A0008091230390912403019749F48091E10201
:1007B0009091E20201979093E2028093E1026CE251
:1007C00071E080E090E0CFD598DD34DF80912503A3
:1007D000909126030197B1F48091300390913103F9
:1007E000029781F480912D03882361F483E090E0E7
:1007F000909331038093300321DE64EF71E080E059
:1008000090E0B1D517DF80913003909131030397C9
:1008100009F03DC080912D038823C9F58091210303
:10082000909122030197B1F42091E3023091E40208
:100830008091DD029091DE02281739073CF42F5F8A
:100840003F4F3093E4022093E30204C01092E4028D
:100850001092E3028091230390912403019789F47D
:100860008091E3029091E4021816190614F401979E
:1008700004C08091DD029091DE029093E4028093A7
:10088000E3026CE271E080E090E06DD51CDD8091C8
:100890002503909126030197B1F480913003909144
:1008A0003103039781F480912D03882361F484E060
:1008B00090E0909331038093300337DE64EF71E072
:1008C00080E090E050D5B6DE80912503909126031C
:1008D0000197E9F480913003909131030497B9F4C2
:1008E00080912D03882399F485E090E09093310363
:1008F0008093300381E080932D03BBD46093360353
:100900007093370380933803909339034EDD92DE62
:1009100080912D03813009F0D4C0ABD420913603EF
:10092000309137034091380350913903621B730BA8
:10093000840B950B685E73408040904090F08091EE
:10094000DD029091DE0201979093DE028093DD023A
:1009500090D4609336037093370380933803909359
:10096000390392DC8091210390912203019709F0D1
:100970004FC000E010E028C08CE093E0602F43E01F
:1009800027D38CE093E062EB72E00E94B711C0E0E5
:10099000D0E010C068EE73E080E090E0E4D4809195
:1009A000DD029091DE0201979093DE028093DD02DA
:1009B0006BDC21968091E3029091E402C817D9077D
:1009C0004CF338DE0F5F1F4F80912103909122037B
:1009D000019721F40431110579F603C004311105A2
:1009E000B4F047D46093320370933303809334039D
:1009F0009093350381E080932E0310922F03809112
:100A0000E50261E0A8D68091E70260E0A4D6CDDCE3
:100A10008091230390912403019709F052C000E0D4
:100A200010E063E1F62E29C08CE093E06F2D43E0E7
:100A3000CFD28CE093E064EB72E00E94B711C0E08B
:100A4000D0E010C068EE73E080E090E08CD480913C
:100A5000DD029091DE0201979093DE028093DD0229
:100A600013DC21968091E3029091E402C817D90724
:100A70004CF3E0DD0F5F1F4FFA94809123039091B8
:100A80002403019721F4FFEFFF1671F603C0043130
:100A90001105B4F0EED36093320370933303809367
:100AA00034039093350310922E0381E080932F033B
:100AB0008091E50260E04FD68091E70261E04BD67D
:100AC00074DC80912E038130D9F580912D03813023
:100AD000B9F5CFD3209132033091330340913403E1
:100AE00050913503621B730B840B950B4091E3020D
:100AF0005091E40228EE33E0F9014E9F90014F9FA0
:100B0000300D5E9F300D1124442737FD4095542F42
:100B1000261737074807590798F4ABD36093320379
:100B200070933303809334039093350380912903AA
:100B300090912A03019690932A038093290335DC30
:100B400080912F038130D9F580912D038130B9F543
:100B500090D320913203309133034091340350916C
:100B60003503621B730B840B950B4091E30250918C
:100B7000E40228EE33E0F9014E9F90014F9F300DC3
:100B80005E9F300D1124442737FD4095542F2617C2
:100B900037074807590798F46CD360933203709372
:100BA0003303809334039093350380912B0390910A
:100BB0002C03019690932C0380932B03F6DB20915A
:100BC000E1023091E2028091290390912A032817D3
:100BD000390794F58CE093E029D28CE093E065E04E
:100BE00041E0F6D18CE093E066EB72E00E94B71131
:100BF0008091E90261E0AFD510922D0310922E038F
:100C000010922F038091E70260E0A5D586E090E086
:100C100090933103809330038091DF029091E00242
:100C20009093DE028093DD0210922A031092290332
:100C300010922C0310922B032091E1023091E202DA
:100C400080912B0390912C032817390794F58CE0A1
:100C500093E0ECD18CE093E063E041E0B9D18CE02B
:100C600093E063EC72E00E94B7118091E90261E0C9
:100C700072D510922D0310922E0310922F038091A3
:100C8000E50260E068D586E090E0909331038093C0
:100C900030038091DF029091E0029093DE02809316
:100CA000DD0210922A031092290310922C03109255
:100CB0002B038091DD029091DE0297FF78C0209196
:100CC000290330912A0380912B0390912C038217E2
:100CD0009307CCF48CE093E0A9D18CE093E065E03D
:100CE00041E076D18CE093E066EB72E00E94B711B0
:100CF0008091E90261E02FD510922D0310922E030E
:100D000010922F033AC028173907DCF48CE093E0E7
:100D10008DD18CE093E063E041E05AD18CE093E028
:100D200063EC72E00E94B7118091E90261E013D593
:100D300010922D0310922E0310922F038091E50242
:100D40001EC08CE093E072D18CE093E065E041E05E
:100D50003FD18CE093E061ED72E00E94B711809189
:100D6000E90261E0F8D410922D0310922E03109244
:100D70002F038091E50260E0EED48091E70260E00D
:100D8000EAD486E090E09093310380933003809121
:100D9000DF029091E0029093DE028093DD021092D8
:100DA0002A031092290310922C0310922B03809196
:100DB000270390912803019719F58091E90260E0DB
:100DC000CAD410922D0310922E0310922F038091FB
:100DD000E50260E0C0D48091E70260E0BCD480917D
:100DE000DF029091E0029093DE028093DD02109288
:100DF0002A031092290310922C0310922B0395DBE7
:100E0000DF91CF911F910F91FF9008958CE093E0B7
:100E100064E144E020E00FD186E360E0E9D387E3BA
:100E200060E0E6D388E360E0E3D389E360E0E0D309
:100E30008091E50261E0DCD38091E70261E0D8D3E4
:100E40008091E90261E0D4D3BEDB83E695E040E027
:100E500052EC61E070E021D78AE06AE770E0EAD204
:100E60008091E90260E077C40F931F938C01FC012D
:100E7000868160E070D481E090E009D2F80186813B
:100E800061E069D481E090E002D2F801868160E0FF
:100E900062D484E690E0FBD11F910F910895CF9228
:100EA000DF92EF92FF920F931F93CF93DF93D82E91
:100EB000C92E282F392FC9018C01C0E0D0E0E62EC1
:100EC000FF24F801878161E093D3B7010C2E02C0A3
:100ED000759567950A94E2F76170F80187813BD4B4
:100EE00021960F5F1F4FC830D10559F78D2D9C2DCE
:100EF000BBDFDF91CF911F910F91FF90EF90DF90BB
:100F0000CF900895CF92DF92EF92FF920F931F93AD
:100F1000CF93DF93D82EC92E282F392FC9018C01EA
:100F2000C0E0D0E0E62EFF24F801878161E060D3C5
:100F3000B7010C2E02C0759567950A94E2F76170AF
:100F4000F801878108D421960F5F1F4FC430D10567
:100F500059F78D2D9C2D88DFDF91CF911F910F9137
:100F6000FF90EF90DF90CF9008951F93CF93DF9382
:100F7000EC01162F8C81642FEED38D818F3F11F001
:100F800060E0E9D38F8584FF04C0CE01612F87DF45
:100F90000CC0612F70E084E0759567958A95E1F744
:100FA000CE01B0DFCE01612FADDFDF91CF911F9178
:100FB000089541E0DADF81E090E0089540E0D5CF88
:100FC000FC016089862F8460808B6C60CF01F6CF36
:100FD000DF93CF93CDB7DEB728970FB6F894DEBF77
:100FE0000FBECDBF9C01FE013196A3EFB2E088E0B9
:100FF0000D9001928150E1F7F9018389481710F0B3
:10100000482F4150E42FF0E0EE0FFF1FEC0FFD1FC3
:101010008181680F6068C901D1DF28960FB6F89406
:10102000DEBF0FBECDBFCF91DF91089561E0C6DF77
:1010300080ED97E02CC1CF93DF93EC01423018F0A4
:101040008F8588608F874B8B1C8A222329F0413043
:1010500019F48F8584608F8780E593EC18D18C819B
:1010600060E079D38E8160E076D38D818F3F11F07F
:1010700060E071D36F8564FD16C0CE0163E042DF8E
:1010800084E991E104D1CE0163E03CDF84E991E1A0
:10109000FED0CE0163E036DF86E990E0F8D0CE01E5
:1010A00062E030DF11C06062CE0188DF84E991E147
:1010B000EED06F856062CE0181DF86E990E0E7D0F7
:1010C0006F856062CE017ADF6F856062CE0176DF68
:1010D00084E0888BCE0174DFCE01A8DF82E0898BAB
:1010E000CE0166E06BDFDF91CF9108956F927F9222
:1010F0008F92AF92CF92EF920F931F93DF93CF9384
:10110000CDB7DEB73C01162F842FF301448325832E
:101110000683E782C086A18682869E8593879F8507
:101120009487988995879989968761E061D2F301C0
:1011300085818F3F11F061E05BD2F301868161E030
:1011400057D2112319F0F301178603C080E1F30190
:101150008787C30160E141E020E06DDFCF91DF913F
:101160001F910F91EF90CF90AF908F907F906F90E5
:1011700008958F92AF92CF92EF920F931F93CF93D8
:10118000DF93DC01362F542F722F102FAE2C8C2CB6
:1011900013961C921E9212978FEE92E011969C93DA
:1011A0008E9300D00F92EDB7FEB73196CDB7DEB774
:1011B0001982118212821382CD0161E0432F2FEF39
:1011C000052FE72EC12E92DF0F900F900F900F90FA
:1011D000DF91CF911F910F91EF90CF90AF908F90B3
:1011E00008951F920F920FB60F9211242F933F93E1
:1011F0008F939F93AF93BF9380913E0390913F0352
:10120000A0914003B0914103309142030196A11D8A
:10121000B11D232F2D5F2D3720F02D570196A11DD5
:10122000B11D2093420380933E0390933F03A0930C
:101230004003B093410380913A0390913B03A09106
:101240003C03B0913D030196A11DB11D80933A036B
:1012500090933B03A0933C03B0933D03BF91AF91A8
:101260009F918F913F912F910F900FBE0F901F90E4
:1012700018958FB7F89420913E0330913F03409129
:101280004003509141038FBFB901CA0108950197EE
:1012900039F0880F991F880F991F02970197F1F76E
:1012A0000895789484B5826084BD84B5816084BDDE
:1012B00085B5826085BD85B5816085BDEEE6F0E0CF
:1012C000808181608083E1E8F0E01082808182602B
:1012D0008083808181608083E0E8F0E080818160AC
:1012E0008083E1EBF0E0808184608083E0EBF0E0DC
:1012F000808181608083E1E9F0E080818260808389
:10130000808181608083E0E9F0E08081816080837A
:10131000E1EAF0E080818260808380818160808367
:10132000E0EAF0E0808181608083E1E2F1E08081A9
:1013300082608083808181608083E0E2F1E080814F
:1013400081608083EAE7F0E080818460808380812F
:1013500082608083808181608083808180688083D7
:101360001092C1000895EF92FF920F931F93CF93B5
:10137000DF937B018C013FB7F89480913A03909101
:101380003B03A0913C03B0913D0326B5A89B05C04B
:101390002F3F19F00196A11DB11D3FBFBA2FA92FF4
:1013A000982F8827820F911DA11DB11D52E0880F33
:1013B000991FAA1FBB1F5A95D1F7EC012FC0D9D78F
:1013C0003FB7F89480913A0390913B03A0913C037E
:1013D000B0913D0326B5A89B05C02F3F19F001969B
:1013E000A11DB11D3FBFBA2FA92F982F8827820FAB
:1013F000911DA11DB11D32E0880F991FAA1FBB1FAF
:101400003A95D1F78C1B9D0B885E9340C0F20894EF
:10141000E108F10801091109C851DC4FE114F10498
:101420000105110561F6DF91CF911F910F91FF909A
:10143000EF9008951F93CF93DF93182FEB0161E096
:10144000D7D0209709F4CAC0CF3FD10509F4C9C04D
:10145000E12FF0E0E254FE4F8491893009F466C038
:101460008A30B0F48430F1F1853040F4823059F1A3
:10147000833070F5813009F0AEC020C0873009F4A8
:1014800043C0883008F048C0863009F0A4C034C09A
:101490008D3009F478C08E3038F48B3009F45AC09E
:1014A0008C3008F066C04CC0803109F480C08131B6
:1014B00009F487C08F3009F08EC06FC084B5806892
:1014C00084BDC7BD91C084B5806284BDC8BD8CC0D9
:1014D00080918000806880938000D0938900C093C1
:1014E000880082C080918000806280938000D093C9
:1014F0008B00C0938A0078C08091B0008068809390
:10150000B000C093B30070C08091B000806280933F
:10151000B000C093B40068C0809190008068809350
:101520009000D0939900C09398005EC08091900085
:10153000806280939000D0939B00C0939A0054C027
:1015400080919000886080939000D0939D00C0931C
:101550009C004AC08091A00080688093A000809188
:10156000A0008F7B8093A000D093A900C093A80017
:101570003BC08091A00080628093A000D093AB001C
:10158000C093AA0031C08091A00088608093A00021
:10159000D093AD00C093AC0027C08091200180683B
:1015A00080932001D0932901C09328011DC0809110
:1015B0002001806280932001D0932B01C0932A01E7
:1015C00013C080912001886080932001D0932D0169
:1015D000C0932C0109C0C038D1051CF4812F60E0F4
:1015E00002C0812F61E0B7D0DF91CF911F910895A4
:1015F000CF93DF93482F50E0CA0188589E4FFC01DB
:1016000034914E5C5E4FFA018491882369F190E039
:10161000880F991FFC01EC51FF4FA591B491FC017B
:10162000E250FF4FC591D491662351F42FB7F8943F
:101630008C91932F909589238C93888189230BC05B
:10164000623061F42FB7F8948C91932F9095892391
:101650008C938881832B88832FBF06C09FB7F89413
:101660008C91832B8C939FBFDF91CF91089589300C
:1016700009F449C08A30A0F4843051F1853040F437
:10168000823079F1833000F5813009F063C026C0E3
:10169000873079F1883098F5863009F05BC025C035
:1016A0008D3009F442C08E3028F48B30B1F18C308B
:1016B000C0F52DC0803109F442C0813109F445C024
:1016C0008F3009F047C037C0809180008F7703C00A
:1016D000809180008F7D80938000089584B58F77FE
:1016E00002C084B58F7D84BD08958091B0008F774E
:1016F00003C08091B0008F7D8093B00008958091E9
:1017000090008F7707C0809190008F7D03C08091FB
:101710009000877F8093900008958091A0008F773C
:1017200007C08091A0008F7D03C08091A000877FBB
:101730008093A0000895809120018F7703C080914D
:1017400020018F7D80932001089580912001877F63
:10175000809320010895FF920F931F93F62E482F38
:1017600050E0CA0182549E4FFC012491CA0188585E
:101770009E4FFC0114914E5C5E4FFA0104910023D0
:10178000C1F0222311F0822F72DFE02FF0E0EE0F84
:10179000FF1FE250FF4FA591B4919FB7F894FF202F
:1017A00021F48C911095812302C08C91812B8C9314
:1017B0009FBF1F910F91FF9008950F931F93482F84
:1017C00050E0CA0182549E4FFC012491CA018858FE
:1017D0009E4FFC0104914E5C5E4FFA01149111235F
:1017E00019F420E030E014C0222311F0822F3FDFF3
:1017F000812F90E0880F991F885E9E4FFC01A59174
:10180000B4918C9120E030E0802311F021E030E0B1
:10181000C9011F910F91089508951F920F920FB65D
:101820000F920BB60F9211242F933F934F938F93E8
:101830009F93EF93FF938091C00082FD1DC0409164
:10184000C60020918303309184032F5F3F4F2F7395
:10185000307080918503909186032817390771F0C5
:10186000E0918303F0918403ED5BFC4F4083309360
:1018700084032093830302C08091C600FF91EF91FF
:101880009F918F914F913F912F910F900BBE0F9091
:101890000FBE0F901F90189508951F920F920FB6CC
:1018A0000F920BB60F9211242F933F934F938F9368
:1018B0009F93EF93FF938091C80082FD1DC04091DC
:1018C000CE0020910B0430910C042F5F3F4F2F73FB
:1018D000307080910D0490910E042817390771F033
:1018E000E0910B04F0910C04E553FC4F40833093DE
:1018F0000C0420930B0402C08091CE00FF91EF9165
:101900009F918F914F913F912F910F900BBE0F9010
:101910000FBE0F901F90189508951F920F920FB64B
:101920000F920BB60F9211242F933F934F938F93E7
:101930009F93EF93FF938091D00082FD1DC0409153
:10194000D60020919304309194042F5F3F4F2F7362
:10195000307080919504909196042817390771F0A2
:10196000E0919304F0919404ED5AFB4F408330933F
:1019700094042093930402C08091D600FF91EF91CC
:101980009F918F914F913F912F910F900BBE0F9090
:101990000FBE0F901F90189508951F920F920FB6CB
:1019A0000F920BB60F9211242F933F934F938F9367
:1019B0009F93EF93FF938091300182FD1DC0409172
:1019C000360120911B0530911C052F5F3F4F2F736F
:1019D000307080911D0590911E052817390771F010
:1019E000E0911B05F0911C05E552FB4F40833093BD
:1019F0001C0520931B0502C080913601FF91EF91D9
:101A00009F918F914F913F912F910F900BBE0F900F
:101A10000FBE0F901F901895E0916F05F091700523
:101A2000E05CFF4F8191919120813181821B930B6A
:101A30008F739070892B09F0EFDEE0919105F091A2
:101A40009205E05CFF4F8191919120813181821B51
:101A5000930B8F739070892B09F01EDFE091B30513
:101A6000F091B405E05CFF4F81919191208131812B
:101A7000821B930B8F739070892B09F04DDFE091DF
:101A8000D505F091D605E05CFF4F819191912081C1
:101A90003181821B930B8F739070892B09F07CCF5F
:101AA00008951F920F920FB60F920BB60F9211244A
:101AB0002F933F938F939F93EF93FF932091C703AF
:101AC0003091C8038091C9039091CA032817390740
:101AD00031F48091C1008F7D8093C10014C0E091EA
:101AE000C903F091CA03E957FC4F20818091C903D3
:101AF0009091CA0301968F7390709093CA0380935C
:101B0000C9032093C600FF91EF919F918F913F9160
:101B10002F910F900BBE0F900FBE0F901F90189536
:101B20001F920F920FB60F920BB60F9211242F93A4
:101B30003F938F939F93EF93FF9320914F043091A6
:101B4000500480915104909152042817390731F4C0
:101B50008091C9008F7D8093C90014C0E091510429
:101B6000F0915204E15FFB4F2081809151049091EC
:101B7000520401968F739070909352048093510495
:101B80002093CE00FF91EF919F918F913F912F91E4
:101B90000F900BBE0F900FBE0F901F9018951F92C5
:101BA0000F920FB60F920BB60F9211242F933F9303
:101BB0008F939F93EF93FF932091D7043091D80494
:101BC0008091D9049091DA042817390731F4809173
:101BD000D1008F7D8093D10014C0E091D904F091A1
:101BE000DA04E956FB4F20818091D9049091DA0400
:101BF00001968F7390709093DA048093D9042093A8
:101C0000D600FF91EF919F918F913F912F910F906F
:101C10000BBE0F900FBE0F901F9018951F920F9242
:101C20000FB60F920BB60F9211242F933F938F9301
:101C30009F93EF93FF9320915F0530916005809112
:101C40006105909162052817390731F480913101BF
:101C50008F7D8093310114C0E0916105F0916205A0
:101C6000E15EFA4F208180916105909162050196B5
:101C70008F73907090936205809361052093360175
:101C8000FF91EF919F918F913F912F910F900BBEFC
:101C90000F900FBE0F901F901895AF92BF92DF92DA
:101CA000EF92FF920F931F93CF93DF93EC017A0192
:101CB0008B01DD24403081EE580780E0680780E02A
:101CC000780711F0DD24D39491E0A92EB12CEC8992
:101CD000FD89DD2069F0C50108A002C0880F991FA9
:101CE0000A94E2F7808360E079E08DE390E005C03C
:101CF000108260E874E88EE190E0A801970159D362
:101D00002150304040405040569547953795279593
:101D100080E12030380720F0DD2011F0DD24D7CF1E
:101D2000E889F9893083EA89FB89208319A2EE8941
:101D3000FF89408121E030E0C9010C8C02C0880F8E
:101D4000991F0A94E2F7482B4083EE89FF8940816E
:101D5000C9010D8C02C0880F991F0A94E2F7482B25
:101D60004083EE89FF894081C9010E8C02C0880F33
:101D7000991F0A94E2F7482B4083EE89FF898081FE
:101D80000F8C02C0220F331F0A94E2F720952823FC
:101D90002083DF91CF911F910F91FF90EF90DF9003
:101DA000BF90AF900895DC011C96ED91FC911D97BA
:101DB000E05CFF4F2191319180819181281B390B8B
:101DC0002F733070C9010895DC011C96ED91FC91D0
:101DD0001D97E05CFF4F20813181E054F040DF012E
:101DE000AE5BBF4F8D919C9111972817390719F45D
:101DF0002FEF3FEF07C08D919C91E80FF91F808175
:101E0000282F30E0C9010895DC011C96ED91FC916A
:101E10001D97E05CFF4F20813181E054F040DF01ED
:101E2000AE5BBF4F8D919C9111972817390719F41C
:101E30002FEF3FEF10C08D919C911197E80FF91F84
:101E400020818D919C91119701968F7390701196BE
:101E50009C938E9330E0C9010895DC0191968C919A
:101E60009197882339F05496ED91FC915597808194
:101E700086FFF9CF91961C920895CF93DF93EC01E2
:101E8000EE85FF85E05CFF4F20813181E054F0401A
:101E90002F5F3F4F2F733070DF01AE5BBF4F8D91CF
:101EA0009C91119728173907D1F3E05CFF4F80818F
:101EB0009181E054F040E80FF91F6083EE85FF85C3
:101EC000E05CFF4F31832083EE89FF89208181E030
:101ED00090E00F8C02C0880F991F0A94E2F7282B1C
:101EE000208381E089A3EC89FD89808180648083DF
:101EF00081E090E0DF91CF9108951F9310926605E5
:101F00001092650528EE33E040E050E0209367052D
:101F1000309368054093690550936A056FEF72E04E
:101F2000709364056093630583E493E09093700578
:101F300080936F0587E893E0909372058093710515
:101F400085EC90E0909374058093730584EC90E0A9
:101F5000909376058093750580EC90E090937805DA
:101F60008093770581EC90E090937A0580937905D2
:101F700082EC90E090937C0580937B0586EC90E06A
:101F800090937E0580937D0514E010937F05B3E068
:101F9000B0938005A7E0A0938105F5E0F09382055A
:101FA000E1E0E09383051092880510928705209365
:101FB000890530938A0540938B0550938C05709367
:101FC0008605609385058BEC93E090939205809352
:101FD00091058FE094E090939405809393058DECA8
:101FE00090E090939605809395058CEC90E090930B
:101FF00098058093970588EC90E090939A058093DC
:10200000990589EC90E090939C0580939B058AEC60
:1020100090E090939E0580939D058EEC90E09093C8
:10202000A00580939F051093A105B093A205A093EE
:10203000A305F093A405E093A5051092AA051092BC
:10204000A9052093AB053093AC054093AD055093A3
:10205000AE057093A8056093A70583E594E090937F
:10206000B4058093B30587E994E09093B605809317
:10207000B50585ED90E09093B8058093B70584EDA4
:1020800090E09093BA058093B90580ED90E090932D
:10209000BC058093BB0581ED90E09093BE058093D5
:1020A000BD0582ED90E09093C0058093BF0586ED5D
:1020B00090E09093C2058093C1051093C305B0933F
:1020C000C405A093C505F093C605E093C70510921B
:1020D000CC051092CB052093CD053093CE054093CF
:1020E000CF055093D0057093CA056093C9058BED59
:1020F00094E09093D6058093D5058FE195E0909379
:10210000D8058093D70585E391E09093DA05809315
:10211000D90584E391E09093DC058093DB0580E3AF
:1021200091E09093DE058093DD0581E391E090934B
:10213000E0058093DF0582E391E09093E2058093D0
:10214000E10586E391E09093E4058093E305109325
:10215000E505B093E605A093E705F093E805E09365
:10216000E9051F910895CF93DF939BD80E9406073E
:10217000CCE0DDE00E9437032097E1F34DDCFACF9D
:10218000CF92DF92EF92FF920F931F93CF93DF9343
:102190007C016B018A01C0E0D0E00FC0D6016D91D7
:1021A0006D01D701ED91FC910190F081E02DC70107
:1021B0001995C80FD91F015010400115110571F76D
:1021C000CE01DF91CF911F910F91FF90EF90DF90A3
:1021D000CF900895CF93DF93EC016115710519F449
:1021E00020E030E00FC0DB010D900020E9F71197EF
:1021F000A61BB70BE881F9810280F381E02DAD01C8
:1022000019959C01C901DF91CF9108954F925F927A
:102210007F928F929F92AF92BF92CF92DF92EF9276
:10222000FF920F931F93DF93CF93CDB7DEB7A197A4
:102230000FB6F894DEBF0FBECDBF2C01742ECB01BC
:10224000223008F42AE019A231E2C32ED12CCC0EA0
:10225000DD1E822E9924AA24BB24672D752FA5018B
:102260009401A7D079018A01C801B701A5019401A1
:1022700081D0472D461B0894C108D1084A3014F478
:10228000405D01C0495CF6014083E114F1040105A1
:10229000110521F07E2C5F2DC801DFCFC201B601F0
:1022A00099DFA1960FB6F894DEBF0FBECDBFCF91D8
:1022B000DF911F910F91FF90EF90DF90CF90BF9033
:1022C000AF909F908F907F905F904F900895CF92A6
:1022D000DF92EF92FF920F931F93CF93DF93EC0166
:1022E0006A017B012115310541F4E881F9810190F2
:1022F000F081E02D642F19951DC02A303105C9F4F5
:1023000077FF16C0E881F9810190F081E02D6DE240
:1023100019958C0144275527BA014C195D096E099E
:102320007F09CE012AE072DF9801280F391F03C010
:102330002AE06CDF9C01C901DF91CF911F910F91C1
:10234000FF90EF90DF90CF900895EF92FF920F9360
:102350001F937B019A010027F7FC0095102FB8010D
:10236000A701B5DF1F910F91FF90EF90089532CF35
:1023700008950895629FD001739FF001829FE00D40
:10238000F11D649FE00DF11D929FF00D839FF00DF4
:10239000749FF00D659FF00D9927729FB00DE11DA0
:1023A000F91F639FB00DE11DF91FBD01CF0111247D
:1023B0000895A1E21A2EAA1BBB1BFD010DC0AA1F86
:1023C000BB1FEE1FFF1FA217B307E407F50720F09E
:1023D000A21BB30BE40BF50B661F771F881F991F19
:1023E0001A9469F760957095809590959B01AC0162
:1023F000BD01CF010895EE0FFF1F0590F491E02D70
:062400001994F894FFCFCF
:1024060052454D41494E494E472054494D453A00A3
:10241600504F494E545300202053455420434150B9
:10242600545552452054494D45005345434F4E445B
:102436005300523D2B2C20423D2D2C20535441520B
:10244600543D4E455854005245442020504F494E65
:1024560054533A2000424C554520504F494E545350
:102466003A200020534554204341505455524520AC
:1024760054494D45520058004D554C5449504C4511
:1024860053204F46203230205345432E0020205300
:1024960045542053434F5245204C494D4954005012
:1024A6005245535320535441525420425554544F8D
:1024B6004E003E003C00524544205445414D2057B5
:1024C6004F4E00424C5545205445414D20574F4EE6
:1024D600004D4154434820445241574E00840384E2
:1024E60003050001001A001B001C0000000000D9B3
:1024F60007C0100000400014005400000000003D1A
:0C2506000FC010D30E040FE40E2D0F00C8
:00000001FF
