:1000000003C100002EC100002CC100002AC1000065
:1000100028C1000026C1000024C1000022C1000048
:1000200020C100001EC100001CC100001AC1000058
:1000300018C1000016C1000014C1000012C1000068
:1000400010C100000EC100000CC100000AC1000078
:1000500008C1000006C1000004C100000C94770A2A
:1000600000C1000003C5000045C60000FAC0000042
:10007000F8C00000F6C00000F4C00000F2C00000AC
:10008000F0C00000EEC00000ECC00000EAC00000BC
:100090002DC500006EC60000E4C0000050C2000084
:1000A000E0C00000DEC00000DCC00000DAC00000DC
:1000B000D8C00000D6C00000D4C00000D2C00000EC
:1000C000D0C00000CEC00000CCC000004FC5000072
:1000D0008FC60000C6C0000089C50000C8C6000069
:1000E000C0C0000000002100240027002A002D00CD
:1000F0003000330001010000040107010A01000083
:100100002200250028002B002E00310034000201BF
:100110000000050108010B0100002000230026005B
:1001200029002C002F00320000010000030106010D
:10013000090105050505070508080808020202026D
:100140000A0A080804040404010101010101010173
:100150000303030303030303040707070C0C0C0C3E
:100160000C0C0C0C02020202060606060606060627
:100170000B0B0B0B0B0B0B0B0102102020080810B4
:100180002040102040800201020108040201010207
:1001900004081020408080402010080402018004E0
:1001A000020180402010080402010804020101023B
:1001B0000408102040800102040810204080000044
:1001C000090A02080B0C0D070603040100000000D9
:1001D000000000000000000000000000000000001F
:1001E0000000000000000000000011100F000000DF
:1001F00000000000000000000000000000000000FF
:10020000000000009C01A60811241FBECFEFD1E220
:10021000DEBFCDBF00E00CBF12E0A0E0B2E0E6E937
:10022000F6E100E00BBF02C007900D92A832B107C3
:10023000D9F71BBE15E0A8E2B2E001C01D92A939B2
:10024000B107E1F712E0C8E0D2E004C02297FE0156
:100250000E94450BC430D107C9F70E94DC090C94F9
:10026000490BCECE8EE692E0F1D08DE061E018D35E
:100270008DE060E0C8D388E095E040E855E260E0BA
:1002800070E034C60F931F9308E015E0C801609139
:1002900006020E94330AC80160E072E00E94660A0A
:1002A0000EE612E0C80162E070E00CD06091060238
:1002B000772767FD7095C80186D0C801C5D01F910A
:1002C0000F91089581E080936D0260934A0210922D
:1002D0006B0210926C0208952091490230E08091E7
:1002E0004802281B3109C9010895409148028091B4
:1002F0004902481718F02FEF3FEF0AC0E42FF0E053
:10030000E85DFD4F8081282F30E04F5F4093480229
:10031000C9010895E091480280914902E81718F058
:10032000EFEFFFEF06C0F0E0E85DFD4F8081E82FC2
:10033000F0E0CF01089508951092710210927002BA
:1003400088EE93E0A0E0B0E0809372029093730295
:10035000A0937402B09375028BE092E090936F02C9
:1003600080936E020895CF92DF92EF92FF920F93E7
:100370001F93CF93DF937C016B018A0180916D0203
:100380008823A1F0C0E0D0E00DC0D701ED91FC9131
:10039000D601AC0FBD1F0190F081E02DC7016C911B
:1003A00019952196C017D10780F303C0CB01642FA4
:1003B000ABD0C801DF91CF911F910F91FF90EF90CB
:1003C000DF90CF900895DF93CF930F92CDB7DEB734
:1003D000FC01698380916D028823C9F080916C02D1
:1003E000803238F081E090E09383828320E030E037
:1003F00014C080916B02E82FF0E0E55BFD4F99811E
:1004000090838F5F80936B0280936C0204C0CE0157
:10041000019661E079D021E030E0C9010F90CF91E1
:10042000DF9108950F93062F80914A026BE472E0EA
:1004300040916C0221E013D010926B0210926C027A
:1004400010926D020F91089561E0ECCF1092480276
:100450001092490210926B0210926C0205C20F9327
:100460001F93582F122F413210F081E04AC0809123
:100470007A028823E1F782E080937A0200937C027B
:100480008FEF8093E7021092A2024093A302A2E8AA
:10049000B2E0FB0102C081918D938E2F861B8417E1
:1004A000D0F310927B0280917B02550F852B8093B5
:1004B0007B0280917D02813041F410927D02809117
:1004C0007B028093BB0085EC01C085EE8093BC006D
:1004D000112321F080917A028230E1F38091E702CA
:1004E0008F3F11F480E00DC08091E702803211F45B
:1004F00082E007C08091E702803311F084E001C000
:1005000083E01F910F910895482F613210F081E030
:10051000089580917A02843011F082E0089560930A
:10052000C502A4EAB2E0842F9C01F90102C08191C6
:100530008D938E2F841B8617D0F380E008951F9231
:100540000F920FB60F920BB60F9211242F933F9379
:100550004F935F936F937F938F939F93AF93BF93CB
:10056000EF93FF938091B90090E0887F9070803680
:10057000910509F4F2C081369105CCF588329105D8
:1005800009F47BC089329105B4F48031910509F4F6
:100590006FC0813191053CF4009709F447C1089779
:1005A00009F04FC165C08831910509F466C0809794
:1005B00009F047C182C08034910509F4A4C0813498
:1005C000910544F48033910509F482C0C89709F07D
:1005D00038C189C08035910509F489C088359105F5
:1005E00009F496C08834910509F02BC1AEC0883952
:1005F000910509F413C189399105ECF48837910507
:1006000009F4ABC0893791054CF48836910509F49B
:10061000A4C08037910509F014C19FC088389105A6
:1006200009F4FCC08039910509F49DC0803891051A
:1006300009F007C198C0803B910509F4C6C0813B11
:1006400091054CF4803A910509F49FC0883A9105D0
:1006500009F0F7C0BAC0803C910509F4E3C0883CBA
:10066000910509F4DFC0883B910509F0EAC0C2C0DA
:1006700080917B028093BB00CFC09091A2028091B9
:10068000A302981768F49091A202E92FF0E0EE57C8
:10069000FD4F80818093BB009F5F9093A202BCC0FE
:1006A00080917C02882309F44BC085ED8093BC00C7
:1006B0008091BC0084FDFCCFC2C080E28093E70241
:1006C00085ED8093BC008091BC0084FDFCCFB7C059
:1006D00080E38093E70285ED8093BC008091BC00AD
:1006E00084FDFCCFACC088E38093E7029BC080917F
:1006F000A2029091BB00E82FF0E0EE57FD4F9083EF
:100700008F5F8093A2029091A2028091A30282C087
:100710008091A2029091BB00E82FF0E0EE57FD4FD0
:1007200090838F5F8093A20280917C02882341F0A6
:1007300085ED8093BC008091BC0084FDFCCF7FC020
:1007400081E080937D0284EA6EC085ED8093BC00D9
:100750008091BC0084FDFCCF72C083E080937A025C
:100760001092E60259C08091E602803208F056C02D
:100770008091E6029091BB00E82FF0E0EA53FD4F34
:1007800090838F5F8093E60247C08091E6028032BB
:1007900030F4E091E602F0E0EA53FD4F108285ED7F
:1007A0008093BC008091BC0084FDFCCF10927A0243
:1007B0006091E602E0918002F091810286EC92E085
:1007C00070E019951092E6022DC084E080937A02C1
:1007D0001092C4021092C502E0917E02F0917F0255
:1007E00019958091C502882329F481E08093C50280
:1007F0001092A4029091C402E92FF0E0EC55FD4F55
:1008000080818093BB009F5F9093C4029091C4024B
:100810008091C502981710F485EC01C085E880939B
:10082000BC000FC085EC8093BC0009C01092E702A9
:1008300085ED8093BC008091BC0084FDFCCF1092BC
:100840007A02FF91EF91BF91AF919F918F917F912C
:100850006F915F914F913F912F910F900BBE0F9031
:100860000FBE0F901F90189510927A0281E080932E
:100870007C0210927D0284E161E0C5D085E161E0F7
:10088000C2D0E9EBF0E080818E7F808380818D7F14
:10089000808388E48093B80085E48093BC00089549
:1008A000CF93DF93482F50E0CA0188589E4FFC0138
:1008B00034914E5C5E4FFA018491882369F190E097
:1008C000880F991FFC01EC51FF4FA591B491FC01D9
:1008D000E250FF4FC591D491662351F42FB7F8949D
:1008E0008C91932F909589238C93888189230BC0B9
:1008F000623061F42FB7F8948C91932F90958923EF
:100900008C938881832B88832FBF06C09FB7F89470
:100910008C91832B8C939FBFDF91CF910895893069
:1009200009F449C08A30A0F4843051F1853040F494
:10093000823079F1833000F5813009F063C026C040
:10094000873079F1883098F5863009F05BC025C092
:100950008D3009F442C08E3028F48B30B1F18C30E8
:10096000C0F52DC0803109F442C0813109F445C081
:100970008F3009F047C037C0809180008F7703C067
:10098000809180008F7D80938000089584B58F775B
:1009900002C084B58F7D84BD08958091B0008F77AB
:1009A00003C08091B0008F7D8093B0000895809146
:1009B00090008F7707C0809190008F7D03C0809159
:1009C0009000877F8093900008958091A0008F779A
:1009D00007C08091A0008F7D03C08091A000877F19
:1009E0008093A0000895809120018F7703C08091AB
:1009F00020018F7D80932001089580912001877FC1
:100A0000809320010895FF920F931F93F62E482F95
:100A100050E0CA0182549E4FFC012491CA018858BB
:100A20009E4FFC0114914E5C5E4FFA01049100232D
:100A3000C1F0222311F0822F72DFE02FF0E0EE0FE1
:100A4000FF1FE250FF4FA591B4919FB7F894FF208C
:100A500021F48C911095812302C08C91812B8C9371
:100A60009FBF1F910F91FF90089508951F920F92BD
:100A70000FB60F920BB60F9211242F933F934F9303
:100A80008F939F93EF93FF938091C00082FD1DC0D1
:100A90004091C60020912803309129032F5F3F4FDA
:100AA0002F73307080912A0390912B0328173907F8
:100AB00071F0E0912803F0912903E851FD4F408344
:100AC000309329032093280302C08091C600FF9130
:100AD000EF919F918F914F913F912F910F900BBE6E
:100AE0000F900FBE0F901F90189508951F920F92B0
:100AF0000FB60F920BB60F9211242F933F934F9383
:100B00008F939F93EF93FF938091C80082FD1DC048
:100B10004091CE002091B0033091B1032F5F3F4F41
:100B20002F7330708091B2039091B3032817390767
:100B300071F0E091B003F091B103E059FC4F4083B4
:100B40003093B1032093B00302C08091CE00FF9197
:100B5000EF919F918F914F913F912F910F900BBEED
:100B60000F900FBE0F901F90189508951F920F922F
:100B70000FB60F920BB60F9211242F933F934F9302
:100B80008F939F93EF93FF938091D00082FD1DC0C0
:100B90004091D60020913804309139042F5F3F4FA7
:100BA0002F73307080913A0490913B0428173907D5
:100BB00071F0E0913804F0913904E850FC4F408323
:100BC000309339042093380402C08091D600FF91FD
:100BD000EF919F918F914F913F912F910F900BBE6D
:100BE0000F900FBE0F901F90189508951F920F92AF
:100BF0000FB60F920BB60F9211242F933F934F9382
:100C00008F939F93EF93FF938091300182FD1DC0DE
:100C1000409136012091C0043091C1042F5F3F4FB5
:100C20002F7330708091C2049091C3042817390744
:100C300071F0E091C004F091C104E058FB4F408393
:100C40003093C1042093C00402C080913601FF910B
:100C5000EF919F918F914F913F912F910F900BBEEC
:100C60000F900FBE0F901F901895E0911405F09112
:100C70001505E05CFF4F8191919120813181821BAC
:100C8000930B8F739070892B09F0EFDEE09136059E
:100C9000F0913705E05CFF4F819191912081318186
:100CA000821B930B8F739070892B09F01EDFE091EC
:100CB0005805F0915905E05CFF4F81919191208199
:100CC0003181821B930B8F739070892B09F04DDF5C
:100CD000E0917A05F0917B05E05CFF4F8191919165
:100CE00020813181821B930B8F739070892B09F0C7
:100CF0007CCF08951F920F920FB60F920BB60F92F2
:100D000011242F933F938F939F93EF93FF93209101
:100D10006C0330916D0380916E0390916F032817DF
:100D2000390731F48091C1008F7D8093C10014C0D8
:100D3000E0916E03F0916F03E45DFC4F20818091A0
:100D40006E0390916F0301968F73907090936F0371
:100D500080936E032093C600FF91EF919F918F9136
:100D60003F912F910F900BBE0F900FBE0F901F90D1
:100D700018951F920F920FB60F920BB60F92112477
:100D80002F933F938F939F93EF93FF932091F403BF
:100D90003091F5038091F6039091F70328173907F6
:100DA00031F48091C9008F7D8093C90014C0E09117
:100DB000F603F091F703EC54FC4F20818091F60389
:100DC0009091F70301968F7390709093F70380933F
:100DD000F6032093CE00FF91EF919F918F913F9169
:100DE0002F910F900BBE0F900FBE0F901F90189574
:100DF0001F920F920FB60F920BB60F9211242F93E2
:100E00003F938F939F93EF93FF9320917C043091B6
:100E10007D0480917E0490917F042817390731F476
:100E20008091D1008F7D8093D10014C0E0917E0429
:100E3000F0917F04E45CFB4F208180917E049091CF
:100E40007F0401968F73907090937F0480937E044B
:100E50002093D600FF91EF919F918F913F912F9119
:100E60000F900BBE0F900FBE0F901F9018951F9202
:100E70000F920FB60F920BB60F9211242F933F9340
:100E80008F939F93EF93FF93209104053091050575
:100E900080910605909107052817390731F4809154
:100EA00031018F7D8093310114C0E0910605F091EE
:100EB0000705EC53FB4F20818091060590910705B3
:100EC00001968F7390709093070580930605209389
:100ED0003601FF91EF919F918F913F912F910F904C
:100EE0000BBE0F900FBE0F901F901895AF92BF9240
:100EF000DF92EF92FF920F931F93CF93DF93EC015A
:100F00007A018B01DD24403081EE580780E06807CC
:100F100080E0780711F0DD24D39491E0A92EB12C64
:100F2000EC89FD89DD2069F0C50108A002C0880FA9
:100F3000991F0A94E2F7808360E079E08DE390E006
:100F400005C0108260E874E88EE190E0A801970186
:100F500078D32150304040405040569547953795C2
:100F6000279580E12030380720F0DD2011F0DD24C6
:100F7000D7CFE889F9893083EA89FB89208319A2D0
:100F8000EE89FF89408121E030E0C9010C8C02C06C
:100F9000880F991F0A94E2F7482B4083EE89FF8956
:100FA0004081C9010D8C02C0880F991F0A94E2F795
:100FB000482B4083EE89FF894081C9010E8C02C015
:100FC000880F991F0A94E2F7482B4083EE89FF8926
:100FD00080810F8C02C0220F331F0A94E2F7209504
:100FE00028232083DF91CF911F910F91FF90EF90E5
:100FF000DF90BF90AF900895DC011C96ED91FC91BD
:101000001D97E05CFF4F2191319180819181281BD8
:10101000390B2F733070C9010895DC011C96ED91D6
:10102000FC911D97E05CFF4F20813181E054F0403E
:10103000DF01AE5BBF4F8D919C9111972817390747
:1010400019F42FEF3FEF07C08D919C91E80FF91F26
:101050008081282F30E0C9010895DC011C96ED91B4
:10106000FC911D97E05CFF4F20813181E054F040FE
:10107000DF01AE5BBF4F8D919C9111972817390707
:1010800019F42FEF3FEF10C08D919C911197E80F4D
:10109000F91F20818D919C91119701968F7390700B
:1010A00011969C938E9330E0C9010895DC019196CE
:1010B0008C919197882339F05496ED91FC91559736
:1010C000808186FFF9CF91961C920895CF93DF938C
:1010D000EC01EE85FF85E05CFF4F20813181E0541B
:1010E000F0402F5F3F4F2F733070DF01AE5BBF4F7B
:1010F0008D919C91119728173907D1F3E05CFF4F30
:1011000080819181E054F040E80FF91F6083EE8503
:10111000FF85E05CFF4F31832083EE89FF892081CA
:1011200081E090E00F8C02C0880F991F0A94E2F7CB
:10113000282B208381E089A3EC89FD89808180644C
:10114000808381E090E0DF91CF9108951F9310920A
:101150000B0510920A0528EE33E040E050E02093A2
:101160000C0530930D0540930E0550930F056BE170
:1011700072E0709309056093080588EE92E0909301
:101180001505809314058CE293E0909317058093E6
:10119000160585EC90E0909319058093180584EC72
:1011A00090E090931B0580931A0580EC90E090935B
:1011B0001D0580931C0581EC90E090931F058093A2
:1011C0001E0582EC90E0909321058093200586EC2B
:1011D00090E0909323058093220514E0109324055A
:1011E000B3E0B0932505A7E0A0932605F5E0F093C2
:1011F0002705E1E0E093280510922D0510922C05BB
:1012000020932E0530932F054093300550933105E0
:1012100070932B0560932A0580E793E09093370540
:101220008093360584EB93E09093390580933805DD
:101230008DEC90E090933B0580933A058CEC90E028
:1012400090933D0580933C0588EC90E090933F059A
:1012500080933E0589EC90E0909341058093400592
:101260008AEC90E090934305809342058EEC90E0E9
:10127000909345058093440510934605B093470528
:10128000A0934805F0934905E0934A0510924F0555
:1012900010924E052093500530935105409352050E
:1012A0005093530570934D0560934C0588EF93E080
:1012B00090935905809358058CE394E090935B05D7
:1012C00080935A0585ED90E090935D0580935C05D1
:1012D00084ED90E090935F0580935E0580ED90E053
:1012E000909361058093600581ED90E09093630594
:1012F0008093620582ED90E090936505809364058C
:1013000086ED90E0909367058093660510936805DD
:10131000B0936905A0936A05F0936B05E0936C05A3
:101320001092710510927005209372053093730529
:10133000409374055093750570936F0560936E0527
:1013400080E894E090937B0580937A0584EC94E0A8
:1013500090937D0580937C0585E391E090937F05D4
:1013600080937E0584E391E09093810580938005CE
:1013700080E391E0909383058093820581E391E07F
:10138000909385058093840582E391E0909387058F
:101390008093860586E391E0909389058093880584
:1013A00010938A05B0938B05A0938C05F0938D055F
:1013B000E0938E051F910895CF93DF93E0D00E94B4
:1013C0003201C5E3D6E00E9442012097E1F34DDCF3
:1013D000FACFCF92DF92EF92FF920F931F93CF93AA
:1013E000DF937C016B018A01C0E0D0E00FC0D60121
:1013F0006D916D01D701ED91FC910190F081E02D8F
:10140000C7011995C80FD91F0150104001151105CA
:1014100071F7CE01DF91CF911F910F91FF90EF9067
:10142000DF90CF900895EF92FF920F931F938C015E
:10143000DC01ED91FC910190F081E02D6DE01995BA
:101440007C01D801ED91FC910190F081E02DC80163
:101450006AE019959C012E0D3F1DC9011F910F9146
:10146000FF90EF900895EF92FF920F931F937C01EE
:10147000DC01ED91FC910190F081E02D19958C013A
:10148000C701D1DF080F191FC8011F910F91FF90ED
:10149000EF900895CF93DF93EC016115710519F476
:1014A00020E030E00FC0DB010D900020E9F711973C
:1014B000A61BB70BE881F9810280F381E02DAD0115
:1014C00019959C01C901DF91CF910895EF92FF9288
:1014D0000F931F937C01DEDF8C01C701A4DF080F8F
:1014E000191FC8011F910F91FF90EF9008951F924F
:1014F0000F920FB60F9211242F933F938F939F93C8
:10150000AF93BF938091940590919505A091960516
:10151000B0919705309198050196A11DB11D232F1B
:101520002D5F2D3720F02D570196A11DB11D209361
:1015300098058093940590939505A0939605B09394
:1015400097058091900590919105A0919205B09199
:1015500093050196A11DB11D80939005909391056F
:10156000A0939205B0939305BF91AF919F918F91F6
:101570003F912F910F900FBE0F901F901895789468
:1015800084B5826084BD84B5816084BD85B5826088
:1015900085BD85B5816085BDEEE6F0E08081816026
:1015A0008083E1E8F0E01082808182608083808126
:1015B00081608083E0E8F0E0808181608083E1EBFE
:1015C000F0E0808184608083E0EBF0E080818160E6
:1015D0008083E1E9F0E080818260808380818160A6
:1015E0008083E0E9F0E0808181608083E1EAF0E0DF
:1015F000808182608083808181608083E0EAF0E086
:10160000808181608083E1E2F1E08081826080837B
:10161000808181608083E0E2F1E08081816080836D
:10162000EAE7F0E08081846080838081826080834B
:101630008081816080838081806880831092C10076
:101640000895A1E21A2EAA1BBB1BFD010DC0AA1F03
:10165000BB1FEE1FFF1FA217B307E407F50720F01B
:10166000A21BB30BE40BF50B661F771F881F991F96
:101670001A9469F760957095809590959B01AC01DF
:10168000BD01CF010895EE0FFF1F0590F491E02DED
:061690001994F894FFCF4D
:1016960048656C6C6F006100000000E301B3016CEB
:1016A6000175018A019B01000000006608E909FC3A
:0816B600072D080D085608007D
:00000001FF
