:1000000072C000009AC0000098C0000096C00000B6
:1000100094C0000092C0000090C000008EC000009C
:100020008CC000008AC0000088C0000086C00000AC
:1000300084C0000082C0000080C000007EC00000BC
:100040007CC000007AC0000078C0000076C00000CC
:1000500074C0000072C0000070C0000075C50000D0
:100060006CC0000078C00000BAC1000066C000008B
:1000700064C0000062C0000060C000005EC00000FC
:100080005CC000005AC0000058C0000056C000000C
:10009000A2C00000E3C1000050C000004EC000003C
:1000A0004CC000004AC0000048C0000046C000002C
:1000B00044C0000042C0000040C000003EC000003C
:1000C0003CC000003AC0000038C00000C4C00000BE
:1000D00004C2000032C00000FEC000003DC20000AB
:1000E0002CC000001B0411241FBECFEFD1E2DEBFE5
:1000F000CDBF00E00CBF12E0A0E0B2E0E0EFFCE01A
:1001000000E00BBF02C007900D92AC31B107D9F7E8
:100110001BBE14E0ACE1B2E001C01D92AD3CB107E2
:10012000E1F710E0C6EED0E003C02297FE01DAD579
:10013000C43ED107D1F7B5D4D9C562CF8EE594E0DE
:1001400060E072E0FFC48EE594E040E052EC61E0D4
:1001500070E041C208951F920F920FB60F920BB636
:100160000F9211242F933F934F938F939F93EF936D
:10017000FF938091C00082FD1DC04091C600209178
:100180005C0230915D022F5F3F4F2F733070809182
:100190005E0290915F022817390771F0E0915C02CE
:1001A000F0915D02E45EFD4F408330935D02209349
:1001B0005C0202C08091C600FF91EF919F918F91E8
:1001C0004F913F912F910F900BBE0F900FBE0F904C
:1001D0001F90189508951F920F920FB60F920BB6AD
:1001E0000F9211242F933F934F938F939F93EF93ED
:1001F000FF938091C80082FD1DC04091CE002091E8
:10020000E4023091E5022F5F3F4F2F7330708091F1
:10021000E6029091E7022817390771F0E091E402B5
:10022000F091E502EC55FD4F40833093E5022093B9
:10023000E40202C08091CE00FF91EF919F918F91D7
:100240004F913F912F910F900BBE0F900FBE0F90CB
:100250001F90189508951F920F920FB60F920BB62C
:100260000F9211242F933F934F938F939F93EF936C
:10027000FF938091D00082FD1DC04091D600209157
:100280006C0330916D032F5F3F4F2F73307080915F
:100290006E0390916F032817390771F0E0916C039A
:1002A000F0916D03E45DFC4F408330936D03209328
:1002B0006C0302C08091D600FF91EF919F918F91C6
:1002C0004F913F912F910F900BBE0F900FBE0F904B
:1002D0001F90189508951F920F920FB60F920BB6AC
:1002E0000F9211242F933F934F938F939F93EF93EC
:1002F000FF938091300182FD1DC040913601209115
:10030000F4033091F5032F5F3F4F2F7330708091CE
:10031000F6039091F7032817390771F0E091F40381
:10032000F091F503EC54FC4F40833093F503209398
:10033000F40302C080913601FF91EF919F918F915C
:100340004F913F912F910F900BBE0F900FBE0F90CA
:100350001F901895E0914804F0914904E05CFF4F2C
:100360008191919120813181821B930B8F739070C9
:10037000892B09F0EFDEE0916A04F0916B04E05CF8
:10038000FF4F8191919120813181821B930B8F735B
:100390009070892B09F01EDFE0918C04F0918D04A0
:1003A000E05CFF4F8191919120813181821B930B01
:1003B0008F739070892B09F04DDFE091AE04F091BE
:1003C000AF04E05CFF4F8191919120813181821BCC
:1003D000930B8F739070892B09F07CCF08951F9237
:1003E0000F920FB60F920BB60F9211242F933F93DB
:1003F0008F939F93EF93FF932091A0023091A102DE
:100400008091A2029091A3022817390731F48091BC
:10041000C1008F7D8093C10014C0E091A202F091D1
:10042000A302E05AFD4F20818091A2029091A30285
:1004300001968F7390709093A3028093A2022093F1
:10044000C600FF91EF919F918F913F912F910F9057
:100450000BBE0F900FBE0F901F9018951F920F921A
:100460000FB60F920BB60F9211242F933F938F93D9
:100470009F93EF93FF93209128033091290380915C
:100480002A0390912B032817390731F48091C90072
:100490008F7D8093C90014C0E0912A03F0912B0353
:1004A000E851FD4F208180912A0390912B03019602
:1004B0008F73907090932B0380932A032093CE0028
:1004C000FF91EF919F918F913F912F910F900BBED4
:1004D0000F900FBE0F901F9018951F920F920FB69E
:1004E0000F920BB60F9211242F933F938F939F93EC
:1004F000EF93FF932091B0033091B1038091B20349
:100500009091B3032817390731F48091D1008F7D82
:100510008093D10014C0E091B203F091B303E0598D
:10052000FC4F20818091B2039091B30301968F73A9
:1005300090709093B3038093B2032093D600FF9101
:10054000EF919F918F913F912F910F900BBE0F9044
:100550000FBE0F901F9018951F920F920FB60F921B
:100560000BB60F9211242F933F938F939F93EF938A
:10057000FF93209138043091390480913A0490918E
:100580003B042817390731F4809131018F7D809326
:10059000310114C0E0913A04F0913B04E850FC4F63
:1005A000208180913A0490913B0401968F73907062
:1005B00090933B0480933A0420933601FF91EF918E
:1005C0009F918F913F912F910F900BBE0F900FBE77
:1005D0000F901F901895AF92BF92DF92EF92FF920B
:1005E0000F931F93CF93DF93EC017A018B01DD24EE
:1005F000403081EE580780E0680780E0780711F00E
:10060000DD24D39491E0A92EB12CEC89FD89DD2065
:1006100069F0C50108A002C0880F991F0A94E2F78B
:10062000808360E079E08DE390E005C0108260E8AF
:1006300074E88EE190E0A801970130D3215030405A
:1006400040405040569547953795279580E120309A
:10065000380720F0DD2011F0DD24D7CFE889F989B3
:100660003083EA89FB89208319A2EE89FF894081C2
:1006700021E030E0C9010C8C02C0880F991F0A9458
:10068000E2F7482B4083EE89FF894081C9010D8C38
:1006900002C0880F991F0A94E2F7482B4083EE8925
:1006A000FF894081C9010E8C02C0880F991F0A94EE
:1006B000E2F7482B4083EE89FF8980810F8C02C0CE
:1006C000220F331F0A94E2F7209528232083DF911D
:1006D000CF911F910F91FF90EF90DF90BF90AF905F
:1006E0000895DC011C96ED91FC911D97E05CFF4F95
:1006F0002191319180819181281B390B2F733070AA
:10070000C9010895DC011C96ED91FC911D97E05CF8
:10071000FF4F20813181E054F040DF01AE5BBF4FDD
:100720008D919C9111972817390719F42FEF3FEFFE
:1007300007C08D919C91E80FF91F8081282F30E030
:10074000C9010895DC011C96ED91FC911D97E05CB8
:10075000FF4F20813181E054F040DF01AE5BBF4F9D
:100760008D919C9111972817390719F42FEF3FEFBE
:1007700010C08D919C911197E80FF91F20818D91E8
:100780009C91119701968F73907011969C938E9304
:1007900030E0C9010895DC0191968C9191978823EE
:1007A00039F05496ED91FC915597808186FFF9CFF1
:1007B00091961C920895CF93DF93EC01EE85FF850F
:1007C000E05CFF4F20813181E054F0402F5F3F4FCC
:1007D0002F733070DF01AE5BBF4F8D919C911197ED
:1007E00028173907D1F3E05CFF4F80819181E054F5
:1007F000F040E80FF91F6083EE85FF85E05CFF4F56
:1008000031832083EE89FF89208181E090E00F8C85
:1008100002C0880F991F0A94E2F7282B208381E0F9
:1008200089A3EC89FD8980818064808381E090E0E8
:10083000DF91CF9108951F9310923F0410923E04D0
:1008400028EE33E040E050E0209340043093410430
:10085000409342045093430460E172E070933D047E
:1008600060933C048CE192E09093490480934804A7
:1008700080E692E090934B0480934A0485EC90E0EC
:1008800090934D0480934C0484EC90E090934F043B
:1008900080934E0480EC90E0909351048093500438
:1008A00081EC90E0909353048093520482EC90E0AA
:1008B000909355048093540486EC90E090935704F1
:1008C0008093560414E010935804B3E0B093590495
:1008D000A7E0A0935A04F5E0F0935B04E1E0E09315
:1008E0005C041092610410926004209362043093BF
:1008F0006304409364045093650470935F046093B1
:100900005E0484EA92E090936B0480936A0488EE1C
:1009100092E090936D0480936C048DEC90E0909342
:100920006F0480936E048CEC90E09093710480933C
:10093000700488EC90E0909373048093720489ECC7
:1009400090E090937504809374048AEC90E0909307
:100950007704809376048EEC90E0909379048093F2
:10096000780410937A04B0937B04A0937C04F093F2
:100970007D04E0937E0410928304109282042093FD
:1009800084043093850440938604509387047093C5
:100990008104609380048CE293E090938D048093B3
:1009A0008C0480E793E090938F0480938E0485ED10
:1009B00090E0909391048093900484ED90E0909364
:1009C00093048093920480ED90E09093950480933B
:1009D000940481ED90E0909397048093960482EDC7
:1009E00090E0909399048093980486ED90E0909322
:1009F0009B0480939A0410939C04B0939D04A0934D
:100A00009E04F0939F04E093A0041092A50410921A
:100A1000A4042093A6043093A7044093A804509301
:100A2000A9047093A3046093A20484EB93E09093D1
:100A3000AF048093AE0488EF93E09093B104809369
:100A4000B00485E391E09093B3048093B20484E30F
:100A500091E09093B5048093B40480E391E0909387
:100A6000B7048093B60481E391E09093B904809336
:100A7000B80482E391E09093BB048093BA0486E3C8
:100A800091E09093BD048093BC041093BE04B09396
:100A9000BF04A093C004F093C104E093C2041F916B
:100AA0000895CF93DF9398D04EDBCAEAD1E046DBBE
:100AB0002097E9F34FDCFBCFCF92DF92EF92FF92CA
:100AC0000F931F93CF93DF937C016B018A01C0E0EA
:100AD000D0E00FC0D6016D916D01D701ED91FC9171
:100AE0000190F081E02DC7011995C80FD91F015061
:100AF00010400115110571F7CE01DF91CF911F91C3
:100B00000F91FF90EF90DF90CF900895CF93DF93F8
:100B1000EC016115710519F420E030E00FC0DB0134
:100B20000D900020E9F71197A61BB70BE881F9811A
:100B30000280F381E02DAD0119959C01C901DF917F
:100B4000CF910895E3CF08951F920F920FB60F92A1
:100B500011242F933F938F939F93AF93BF938091D3
:100B6000C8049091C904A091CA04B091CB043091FB
:100B7000CC040196A11DB11D232F2D5F2D3720F030
:100B80002D570196A11DB11D2093CC048093C8045C
:100B90009093C904A093CA04B093CB048091C40479
:100BA0009091C504A091C604B091C7040196A11DFF
:100BB000B11D8093C4049093C504A093C604B09360
:100BC000C704BF91AF919F918F913F912F910F904B
:100BD0000FBE0F901F901895789484B5826084BDE5
:100BE00084B5816084BD85B5826085BD85B5816031
:100BF00085BDEEE6F0E0808181608083E1E8F0E091
:100C00001082808182608083808181608083E0E8BF
:100C1000F0E0808181608083E1EBF0E0808184609E
:100C20008083E0EBF0E0808181608083E1E9F0E0A7
:100C3000808182608083808181608083E0E9F0E050
:100C4000808181608083E1EAF0E08081826080833E
:100C5000808181608083E0EAF0E080818160808330
:100C6000E1E2F1E080818260808380818160808325
:100C7000E0E2F1E0808181608083EAE7F0E080815A
:100C800084608083808182608083808181608083B2
:100C90008081806880831092C1000895A1E21A2E9D
:100CA000AA1BBB1BFD010DC0AA1FBB1FEE1FFF1F10
:100CB000A217B307E407F50720F0A21BB30BE40B60
:100CC000F50B661F771F881F991F1A9469F76095A7
:100CD0007095809590959B01AC01BD01CF01089561
:100CE000EE0FFF1F0590F491E02D1994F894FFCFBB
:100CF00048656C6C6F20576F726C640000000000D8
:0C0D0000DB035C057103A2038203CB033C
:00000001FF
